:020000022000DC
:1070000000000420757302005D7302005F730200CC
:1070100061730200637302006573020000000000E8
:107020000000000000000000000000006773020084
:1070300069730200000000006B7302006D730200B0
:10704000EDA202006F730200D9AF02006F7302005D
:107050006F7302006F730200D1AE02006F73020003
:107060006F7302006F7302006F7302006F73020090
:107070006F7302006F7302006F7302006F73020080
:107080006F730200E58802006F7302006F730200E5
:107090006F7302006F73020085E602006F730200D7
:1070A0006F7302006F7302006F7302006F73020050
:1070B0006F7302006F730200000000000000000008
:1070C0006F7302006F7302006F7302006F73020030
:1070D0006F7302006F7302006F7302006F73020020
:1070E0006F7302006F7302006F73020000000000F4
:1070F000000000006F730200000000006F730200C8
:10710000000000000000000000000000000000007F
:10711000000000000000000000000000000000006F
:10712000000000000000000000000000000000005F
:10713000000000000000000000000000000000004F
:10714000000000000000000000000000000000003F
:10715000000000000000000000000000000000002F
:10716000000000000000000000000000000000001F
:10717000000000000000000000000000000000000F
:1071800000000000000000000000000000000000FF
:1071900000000000000000000000000000000000EF
:1071A00000000000000000000000000000000000DF
:1071B00000000000000000000000000000000000CF
:1071C00000000000000000000000000000000000BF
:1071D00000000000000000000000000000000000AF
:1071E000000000000000000000000000000000009F
:1071F000000000000000000000000000000000008F
:10720000354936480A1A02D0072291438D4634493F
:1072100034480A1A06D00722914381F309880222D2
:1072200082F3148830483149314A00F044F831483B
:107230003149324A00F03FF831483249324A00F0D1
:107240003AF832483249334A00F035F83248334987
:10725000334A00F030F833483349344A00F02BF811
:1072600033483449344A00F026F83448344900227F
:1072700000F02CF833483449002200F027F8334856
:107280003349091A082902DB002202604160314AB1
:1072900090471F481F49884205D00268043003B454
:1072A000904703BCF7E700208646EC46002000210B
:1072B000294A9047FEE7884207D0521A05D0037842
:1072C00001300B700131013AF9D17047884202D088
:1072D00002700130FAE770470000042000E003204C
:1072E000000004200000042000210300D818002022
:1072F000A0190020D0730200D0730200F41A03001A
:1073000000210300D8180020D8180020141B030007
:10731000141B0300141B0300141B0300141B0300A5
:10732000141B0300141B0300141B030000210300A3
:10733000C8210300A0190020A0190020A0190020D6
:10734000B01E0020B01E0020B41E0020B41E00207D
:10735000B43E00209D7302007DD00200FEE7FEE7F0
:10736000FEE7FEE7FEE7FEE7FEE7FEE7FEE7FEE7F5
:1073700000F002B8FFF7FCBF0F484FF00701884349
:1073800085460E4880470E48016841F4700101604F
:10739000BFF34F8FBFF36F8FFFF732BF09480A4922
:1073A0000A4A884207D0521A05D0037801300B7080
:1073B0000131013AF9D1704700000420859602009E
:1073C00088ED00E0141B0300D8180020D818002016
:1073D00000487047A81E002084B003468DF807308F
:1073E0009DF807305B08DBB21A460D4B9B5C8DF8AD
:1073F0000F309DF8073003F00103002B04D09DF8F7
:107400000F301B09DBB204E09DF80F3003F00F03CF
:10741000DBB28DF80E309DF80E30184604B0704780
:10742000B819002084B003460A468DF80730134689
:107430008DF806309DF8073003F00103002B01D0D2
:107440000F2300E0F0238DF80F309DF8073003F094
:107450000103002B04D09DF806301B01DBB201E0D4
:107460009DF806308DF80E309DF807305B08DBB2D2
:107470001A46114B9A5C9DF807305B08DBB219463F
:107480009DF80F301340DAB20B4B5A549DF8073079
:107490005B08DBB21A46084B9A5C9DF807305B0824
:1074A000DBB219469DF80E301343DAB2024B5A5440
:1074B00000BF04B0704700BFB819002084B0034675
:1074C0008DF807300023039310E00D4B1A68039BDF
:1074D000DB0013440293029B1B789DF807209A421D
:1074E00001D1029B09E0039B01330393054B1B78F9
:1074F0001A46039B9342E8DB0023184604B070470A
:10750000A0190020A419002000B585B003460A4642
:107510008DF8073013468DF806309DF80730184671
:10752000FFF7CCFF0390039B002B0BD0039B5B6802
:10753000002B07D0039B5B689DF806109DF8072081
:107540001046984700BF05B05DF804FB2DE9F04FE9
:1075500087B003460A468DF80F3013468DF80E307B
:107560009DF80F301846FFF737FF0346042B00F253
:10757000C28001A252F823F08D750200017602004C
:107580001D7602004D760200637602009DF80E30F3
:10759000002B00F0AD809DF80F3001211846FFF759
:1075A00041FF00238DF817300DF11703184600F046
:1075B00051FE9DF80F104FF001024FF00003A1F1B2
:1075C0002004C1F1200003FA01F702FA04F4274372
:1075D00022FA00F0074302FA01F6494BD3E90023EF
:1075E00046EA020100913B430193454BDDE900125D
:1075F000C3E900129DF81730184600F035FE77E019
:107600009DF80E30002B01D0022200E000229DF8F0
:107610000F3011461846FFF705FF6CE09DF80E305D
:10762000002B0CD09DF80F3003211846FFF7FAFE0F
:107630009DF80F3001211846FFF766FF5BE09DF8CB
:107640000F3001211846FFF7EDFE54E09DF80E3093
:10765000002B4FD19DF80F3004211846FFF7E2FEB2
:1076600048E09DF80E30002B06D09DF80F30032126
:107670001846FFF7D7FE3EE09DF80F300021184670
:10768000FFF7D0FE9DF80F3000211846FFF73CFFB2
:1076900000238DF816300DF11603184600F0DAFDC0
:1076A0009DF80F104FF001024FF00003A1F12006EA
:1076B000C1F1200003FA01F502FA06F6354322FA79
:1076C00000F0054302FA01F46FEA04086FEA0509C5
:1076D0000B4BD3E9002308EA020A09EA030B084B23
:1076E000C3E900AB9DF81630184600F0BDFD02E07E
:1076F00000BF00E000BF00BF07B0BDE8F08F00BFD3
:10770000B019002000B583B00648074B1B685B0822
:107710000022194600F098FC019000BF03B05DF80C
:1077200004FB00BFD8180020A819002000B587B0BE
:1077300001900023059328E01C4B1A68059BDB0091
:1077400013440493049B1B78184603F01FFB034665
:107750008DF80F30049B5B78012B0CBF01230023B5
:10776000DBB21A469DF80F309A420CBF012300236A
:107770008DF80E30049B1B789DF80E20114618469C
:10778000FFF7E4FE059B01330593094B1B781A466E
:10779000059B9342D0DB074BD3E90023134301D071
:1077A000FFF7B0FF00BF07B05DF804FBA019002091
:1077B000A4190020B019002000B585B001900B4637
:1077C0008DF80330019BDBB21846FFF777FE03907C
:1077D000039B1B78184603F0D9FA03468DF80B304B
:1077E000039B5B78012B0CBF01230023DBB21A46FD
:1077F0009DF80B309A420CBF012300238DF80A300C
:107800009DF80A30002B06D0054BD3E90023134323
:1078100001D1FFF777FF00BF05B05DF804FB00BFA3
:10782000B019002000B58BB003900B4601928DF883
:107830000B30019B092B01D8072367E003F0BEF949
:10784000034683F00103DBB2002B09D003F052F9A9
:107850000990099B0893089B002B01D0089B55E0D9
:107860002C4A039B13602C4A9DF80B3013702B4A53
:10787000019B136020220021294808F078FB294948
:107880004FF000024FF00003C1E9002331E09DF802
:107890000B30DB00039A1344079303238DF8143055
:1078A00000238DF815309DF816306FF300038DF826
:1078B00016309DF816306FF341038DF816309DF8A1
:1078C00016306FF382038DF81630079B9B788DF886
:1078D0001530079B1B78184605AB134A194603F071
:1078E00079F90990099B0693069B002B01D0069B12
:1078F0000CE09DF80B305A1E8DF80B20002BC6D1E2
:107900000A4A00210A4800F079FB034618460BB0EA
:107910005DF804FBA0190020A4190020A81900207C
:10792000B8190020B0190020B97702002D770200A5
:10793000141B030000B583B0002301930CE00C4B33
:107940001A68019BDB0013441B780121184603F0E1
:10795000B1F9019B01330193064B1B781A46019B39
:107960009342ECD30023184603B05DF804FB00BF3C
:10797000A0190020A419002000B587B001900023B1
:10798000039300230493019B059303AB1A46002144
:1079900044F2010000F018F800BF07B05DF804FBE6
:1079A000BFF34F8F00BF064BDB6803F4E06204496E
:1079B000044B1343CB60BFF34F8F00BF00BFFDE705
:1079C00000ED00E00400FA0500B585B003900291D7
:1079D000019272B600BF044B1B6803F00103002B39
:1079E00000D000BEFFF7DCFFF0ED00E02DE9F04332
:1079F00083B0144800F05CFF034600221C46154685
:107A0000114BD3E9002314EB020845EB0309CDE940
:107A100000890E4BD3E90023DDE90001904271EBB0
:107A2000030307D2DDE9002312F1807643F100075A
:107A3000CDE90067DDE900231046194603B0BDE833
:107A4000F08300BFF8180020E0190020E81900209A
:107A500088B001900091019B0793009B0693079BC0
:107A6000D3E90223CDE90423069BD3E90223CDE920
:107A70000223DDE90423DDE90201904271EB0303F7
:107A80002CBF01230023DBB2184608B0704700006A
:107A9000F0B585B0019000238DF80F303F4B1B7877
:107AA000002B75D0019B002B72D0FFF79FFF019B2D
:107AB000D3E90223904271EB030358D300238DF8DE
:107AC0000D300DF10D03184600F0C4FB019B1B693E
:107AD000002B06D101994FF0FF324FF0FF33C1E97F
:107AE00002239DF80D30184600F0BEFB019B5B6938
:107AF000019A92691046984700238DF80C3003AB29
:107B0000184600F0A7FB019B1B69002B1AD0019BB4
:107B1000D3E90223B3F1FF3F08BFB2F1FF3F11D019
:107B2000019BD3E902230199096900200C4605460F
:107B3000161943EB0507019BC3E9026701238DF882
:107B40000E3002E000238DF80E309DF80C30184600
:107B500000F08AFB9DF80E30002B19D0019B1946CE
:107B60000F4801F07FF801238DF80F3010E0019BE2
:107B7000D3E90223B3F1FF3F08BFB2F1FF3F07D0C3
:107B8000019B1946064801F06DF801238DF80F306E
:107B90009DF80F30184605B0F0BD00BFDC1900207D
:107BA000181B030030B58BB0019000910D23099391
:107BB000009B00221A70019BD3E90223CDE9062322
:107BC000FFF714FFDDE90623141A63EB0105CDE985
:107BD0000445DDE90423012A73F1000318DB049B4B
:107BE000B3F5350F05D300F0B7FA0246114B134435
:107BF00000E0069B03934FF49603039A00210E487E
:107C000000F062FD0990099B002B05D101230EE0D5
:107C10000021094800F026FE099B0D2B06D1019892
:107C2000FFF736FF03461A46009B1A7000231846DA
:107C30000BB030BDFFFFB400F818002000B583B0D2
:107C4000044801F038F80190019B184603B05DF834
:107C500004FB00BF181B030000B583B0044801F00B
:107C600040F80190019B184603B05DF804FB00BF8B
:107C7000181B030000B583B0FFF7E0FF0190019BE4
:107C8000002B06D001994FF0FF324FF0FF33C1E9CE
:107C90000223019B002BEFD100BF00BF03B05DF8B2
:107CA00004FB0000054BD3E9002312F1807043F17F
:107CB0000001024BC3E9000100BF7047E01900203A
:107CC00000B583B00190084B1B68002B07D0064B12
:107CD0001B681846FFF7DCFE034B00221A6000BF4A
:107CE00003B05DF804FB00BFD819002000B583B0D5
:107CF0000190FFF77BFE02460B460349C1E90023D2
:107D000000BF03B05DF804FBE819002000B587B0A0
:107D10000190FFF7A1FF049000238DF81730049B1A
:107D2000002B58D0049BD3E90223B3F1FF3F08BFD7
:107D3000B2F1FF3F02D1FFF781FF54E02E4B1B68E9
:107D4000002B03D101238DF817301DE0049BD3E9EC
:107D50000201294B1B68D3E90223904271EB030314
:107D600012D201238DF81730234B1B68D3E902236D
:107D7000B3F1FF3F08BFB2F1FF3F05D01E4B1B68B8
:107D800019461E4800F06EFF9DF81730002B2BD0CF
:107D9000FFF754FF04900DF10F0319460498FFF705
:107DA00001FF0346002B12D0134B1B68002B02D19E
:107DB000019800F0CFFB104A049B13609DF80F3030
:107DC00083F00103DBB2002BA3D000BF0FE00A4B0E
:107DD00000221A609DE7084B1B68002B06D1019812
:107DE00000F0C5FB02E094E700BF00E000BF00BF69
:107DF00007B05DF804FB00BFD8190020181B030072
:107E000000B587B001902B4A03AB1946104600F02D
:107E10004CFE059045E0059B1B78022B2BD0022BD6
:107E20002FDC002B02D0012B11D02AE0059B5B68D0
:107E3000D3E90223B3F1FF3F08BFB2F1FF3F22D0E5
:107E4000059B5B6819461C4800F00CFF1BE0059B76
:107E50005A681A4B1B689A4203D1184B00221A60C9
:107E600012E0059B5B681946134800F042FF034689
:107E70008DF8133008E0FFF7FDFE114B01221A7058
:107E800002E000BF00E000BF0A4A03AB19461046FB
:107E900000F024FE074A03AB1946104600F005FE29
:107EA0000590059B002BB6D100BF00BF07B05DF861
:107EB00004FB00BF481A0020181B0300D81900203B
:107EC000DC19002000B583B00190019800F0BDFCE2
:107ED0000346002B01D0FFF7E5FE0021019800F0DA
:107EE000D2FC0346002B02D00198FFF7E9FE0121E6
:107EF000019800F0C8FC0346002B02D00198FFF760
:107F0000F5FE0198FFF77CFF0198FFF7FFFE00BF29
:107F100003B05DF804FB000008B5024800F0D5FC92
:107F200000BF08BDF818002000B585B003460091D9
:107F30008DF80730114A02AB1946104600F088FD53
:107F40000390039B002B13D0039B9DF807201A700E
:107F5000039B009A5A60094A02AB1946104600F08A
:107F600090FD0346002B01D0FFF7D6FF002300E071
:107F70000423184605B05DF804FB00BF481A002032
:107F800000B583B0164B1B6800931648082358228F
:107F9000154900F02AFD0190019B002B01D0019BA7
:107FA00019E06B46114A1946114800F08BFA01900E
:107FB000019B002B01D0019B0DE001210C4800F03A
:107FC00033FC01230B4A0121094800F0DDFA0A4B7A
:107FD00001221A70019B184603B05DF804FB00BF34
:107FE000241B0300481A0020F0190020C57E02005F
:107FF000F8180020FFFF7F00DC19002086B00390F6
:108000000B4601928DF80B30019B002B01D1072309
:1080100017E0039B1B68059305994FF0FF324FF063
:10802000FF33C1E90223059B019A5A619DF80B3089
:10803000012B0CBF01230023DBB21A46059B1A61FA
:108040000023184606B07047F0B589B0039002913E
:108050000192039B069300238DF817300DF117034F
:10806000184600F0F7F8069BD3E90223B3F1FF3F6F
:1080700008BFB2F1FF3F11D1FFF7B8FC02460B4633
:10808000029900200C460546161943EB0507069B8E
:10809000C3E9026701238DF81F3002E000238DF849
:1080A0001F309DF81730184600F0DEF89DF81F309D
:1080B00083F00103DBB2002B01D000230EE0069B0E
:1080C000019A9A61069B1B69002B02D0069B029ABB
:1080D0001A6106990020FFF727FF0346184609B0EA
:1080E000F0BD00B587B00190019B049300238DF88B
:1080F0000F300DF10F03184600F0ACF8049BD3E9E4
:108100000223B3F1FF3F08BFB2F1FF3F03D10023C9
:108110008DF8173009E004994FF0FF324FF0FF332C
:10812000C1E9022301238DF817309DF80F3018465E
:1081300000F09AF89DF8173083F00103DBB2002BB2
:1081400001D0002304E004990120FFF7EDFE03466F
:10815000184607B05DF804FB08B5034800F0A8FB1B
:108160000346184608BD00BFF818002082B0EFF3A0
:1081700010830093009B019372B600BF019B1846C9
:1081800002B0704762B600BF00BF704700B585B04F
:108190000190FFF7EBFF0390164B9B68002B1BD160
:1081A000144B01229A60144BD3F88020134B1340D8
:1081B000104A1360104B114AC3F880200E4BD3F8BD
:1081C00084300C4A53600C4B4FF0FF32C3F88420CC
:1081D000019B00221A7002E0019B01221A70039B8E
:1081E000002B01D1FFF7CEFF0023184605B05DF844
:1081F00004FB00BF5C1A002000E100E0FC06FFBDAC
:1082000000B585B003468DF80730104B9B68002BF6
:1082100016D09DF80730002B12D1FFF7A7FF03906F
:108220000B4A0A4B1B681360094A084B5B68536092
:10823000064B00229A60039B002B01D1FFF7A2FF9F
:108240000023184605B05DF804FB00BF5C1A00204F
:1082500000E100E000B583B001900198FFF796FFC0
:1082600000BF03B05DF804FB00B583B003468DF892
:1082700007309DF807301846FFF7C2FF00BF03B074
:108280005DF804FB82B003468DF807309DF9073096
:10829000002B0CDB9DF8073003F01F0205499DF908
:1082A00007305B09012000FA02F241F8232000BFE9
:1082B00002B0704700E100E082B003468DF807305D
:1082C0009DF90730002B0DDB9DF8073003F01F02EE
:1082D00006499DF907305B09012000FA02F240339C
:1082E00041F8232000BF02B0704700BF00E100E06A
:1082F00082B0034600918DF807309DF90730002BBE
:108300000ADB009BDAB20C499DF907305201D2B268
:108310000B4483F800230BE0009BDAB207499DF879
:10832000073003F00F03043B5201D2B20B441A761C
:1083300000BF02B0704700BF00E100E000ED00E0C8
:1083400000B583B003460A468DF8073013468DF812
:1083500006309DF806209DF9073011461846FFF7B4
:10836000C7FF00BF03B05DF804FB00B583B0034650
:108370008DF807309DF907301846FFF783FF00BFDF
:1083800003B05DF804FB000000B585B00190019BCF
:10839000002B0AD0074B43F001030393019B9B0181
:1083A0000293039B0298984700E000BF05B05DF878
:1083B00004FB00BF301B030084B0039002910192C4
:1083C000039B029A02F5A872019943F8221000BF9C
:1083D00004B0704782B001900091019B009A02F5B1
:1083E000A87253F82230184602B0704782B001904C
:1083F0000091019B009AC3F8042300BF02B07047AC
:1084000082B001900091019B009AC3F8082300BF3D
:1084100002B0704782B001900B46ADF80230BDF853
:108420000230019A13441B68184602B0704784B0AA
:1084300001900B46ADF80230BDF80230019A1344AA
:1084400000221A60BDF80230019A13441B6803939E
:10845000039B00BF04B0704782B00190019BD3F82A
:108460000435184602B0704782B001900091019B1C
:10847000009AC3F8082500BF02B0704782B001908F
:108480000B468DF803309DF80320019B13441A46D8
:108490000123136000BF02B0704782B001900091C9
:1084A000019B009AC3F8442300BF02B0704782B01A
:1084B00001900091019B009AC3F8482300BF02B0CD
:1084C0007047000000B587B0039002910192039BB2
:1084D0005B7919461D4A019B42F82130039B5B7969
:1084E0001B4ADB0013441B79002B03D008230593A0
:1084F000059B27E0039B1A68029B1B8819461046C0
:10850000FFF7B2FF039B93F90420029B9B78194667
:108510001046FFF715FF039B93F904301846FFF749
:1085200024FF039B5B790A4ADB00134401221A7182
:10853000039B5B791946064A039B42F831300023BE
:108540000593059B184607B05DF804FB681A0020E8
:108550006C1A002000B583B00190019B1B680021BC
:108560001846FFF78BFF00BF03B05DF804FB00B5B2
:1085700083B00190019B1B6804211846FFF77EFF22
:1085800000BF03B05DF804FB00B587B00390029113
:1085900001928DF803304FF48032029B02FA03F30C
:1085A0000593029B50339BB29B00ADF81230019BA8
:1085B00023F07F430193039B1B6805991846FFF73F
:1085C0001FFF039B1B6805991846FFF770FF039B6D
:1085D0001B68BDF8122011461846FFF728FF039BC1
:1085E0001B68019A02991846FFF7E6FE039B1B6879
:1085F00005991846FFF751FF9DF80330002B05D071
:10860000039B1B6805991846FFF7F0FE00BF07B0F3
:108610005DF804FB00B585B00390029113468DF818
:108620000730039B1B6802991846FFF736FF9DF839
:108630000730002B05D0039B1B6802991846FFF7F3
:10864000D5FE00BF05B05DF804FB00B583B0019016
:108650000091019B1B6800991846FFF728FF019BBA
:108660001B6800991846FFF7CBFE00BF03B05DF80A
:1086700004FB00B583B001900B46ADF80230019BBE
:108680001B68BDF8022011461846FFF7C3FE0346DB
:10869000002B09D0019B1B68BDF80220114618462B
:1086A000FFF7C5FE012300E00023184603B05DF884
:1086B00004FB82B001900091019A009BD31A23F031
:1086C0007F43184602B0704700B58BB0039002910B
:1086D000019200934FF48032029B02FA03F3099354
:1086E000029B50339BB29B00ADF82230019B23F0DC
:1086F0007F43019309990398FFF7A7FF039B1B682A
:108700001846FFF7A9FE0790039B1B6802991846BD
:10871000FFF760FE0690039B1B68079A02991846B4
:10872000FFF74AFE039B1B68BDF82220114618463E
:10873000FFF77DFE07990698FFF7BBFF0346012B65
:108740000AD11020FFF720FE039B1B68BDF82220F2
:1087500011461846FFF76BFE039B1B681846FFF790
:108760007BFE079007990198FFF7A3FF0590039BF5
:108770001B6809991846FFF790FE059B012B15D140
:10878000039B1868019B01331A460299FFF714FEF8
:108790001020FFF7F9FD039B1B681846FFF75CFEEE
:1087A0000246079B934235D00D2339E0039B1B689B
:1087B000019A02991846FFF7FFFD039B1B681846B4
:1087C000FFF74AFE0790019B013B07991846FFF708
:1087D00070FF0590009BC3F1FF1303F57F43059ADB
:1087E0009A4201D90D231BE0059B002B12D1039B5C
:1087F0001868019B01331A460299FFF7DDFD039BC0
:108800001B681846FFF728FE0246079B934201D0DB
:108810000D2305E0012209990398FFF7FBFE0023D1
:1088200018460BB05DF804FB00B583B001900B4611
:108830008DF803309DF803301A4602210198FFF7A6
:10884000E9FE00BF03B05DF804FB00B583B0019002
:108850004FF482710198FFF70CFF0346184603B0EE
:108860005DF804FB00B583B0019000914FF48032B5
:10887000009B02FA03F319460198FFF7E6FE00BFDA
:1088800003B05DF804FB00B585B001900091009B3A
:1088900050339BB29B00ADF80E30BDF80E30194638
:1088A0000198FFF7E6FE0346184605B05DF804FBA5
:1088B00000B583B00190019B1B681846FFF7CCFD03
:1088C0000346184603B05DF804FB00B583B0019081
:1088D000019B93F904301846FFF7EEFC00BF03B08C
:1088E0005DF804FB08B5044B1B68044A1268104687
:1088F000984700BF08BD00BF681A00206C1A00200E
:1089000086B001900091019B53E8011F8AB2D8897B
:1089100002449889824228BF121A1889824202BFF3
:10892000BFF32F8F002307E0C2EA010243E80120D2
:108930000028E9D14FF001038DF80F300590029126
:108940000492029A009B1A609DF80F30DBB2184621
:1089500006B0704784B00190019951E8013FC3EA25
:10896000034341E80132002AF7D10392029300BF8A
:1089700004B0704786B001900091019B53E8021F3C
:108980001FFAA1F2D888824202BFBFF32F8F0023C3
:108990000DE0D88902449889824228BF121AC1EAA0
:1089A000024243E802200028E8D14FF001038DF88D
:1089B0000F30059002910492029A009B1A609DF874
:1089C0000F30DBB2184606B0704784B001900199B1
:1089D00051E8023FC3EA234341E80232002AF7D1BB
:1089E0000392029300BF04B0704784B003900291D9
:1089F00011461A460B46ADF806301346ADF8043062
:108A0000029B002B01D10E231FE0BDF80630BDF8FC
:108A10000420B3FBF2F101FB02F29B1A9BB2002B84
:108A200001D0092311E0039B029A1A60039B0022E4
:108A30005A60039B00229A60039BBDF806209A812E
:108A4000039BBDF80420DA810023184604B0704768
:108A500000B585B001900091009B19460198FFF781
:108A60004FFF0346002B07D0019B1B68009A12881A
:108A700013440393039B00E00023184605B05DF800
:108A800004FB00B583B001900091009B1A88009B05
:108A90005B889A4204D10198FFF75CFF012300E054
:108AA0000023184603B05DF804FB00B585B00190C3
:108AB0000091009B19460198FFF75CFF0346002BCD
:108AC00007D0019B1B68009A528813440393039BB1
:108AD00000E00023184605B05DF804FB00B583B044
:108AE00001900091009B1A88009B5B889A4204D1F8
:108AF0000198FFF76AFF012300E00023184603B046
:108B00005DF804FB82B003468DF807309DF907300D
:108B1000002B0DDB9DF8073003F01F0206499DF97D
:108B200007305B09012000FA02F2603341F823208C
:108B300000BF02B0704700BF00E100E082B00190CA
:108B4000019B00221A60BFF35F8F00BF00BF02B01D
:108B5000704741DF704700BF184600B585B000235D
:108B60008DF807300DF107031846FFF773FBF1EEA0
:108B7000103A0393039B23F09F030293029BE1EEC1
:108B8000103A00BFBFF35F8F00BF2620FFF7BAFF88
:108B90009DF807301846FFF767FB00BF05B05DF88A
:108BA00004FB000008B5064B00221A700548FFF7C9
:108BB000C5FF0549054800F01FF80023184608BD09
:108BC000781A0020741A0020381B03007C1A002039
:108BD00000B583B0FFF7C1FF05F026FD0346002B6B
:108BE00003D0FFF7B6FF019002E020BF40BF20BFD7
:108BF00000BF03B05DF804FB82B001900091019BBF
:108C0000009A1A60019B1B681A68019B5A60019BBD
:108C10005A68019B1B685B689A4202D1019B002243
:108C20005A6000BF02B0704782B00190019B5B6840
:108C3000002B14D0019B5B681A46019B1B689B6844
:108C400013441A46019B5A60019B5A68019B1B689A
:108C50005B689A4204D1019B00225A6000E000BF89
:108C600002B0704700B585B001900091019B5B6830
:108C700003930FE0019B9B68039A126800991046CA
:108C80009847034683F00103DBB2002B07D1039B17
:108C90001B680393039B1B68002BEBD100E000BF14
:108CA000039B1A68009B1A60039B009A1A6000BF1E
:108CB00005B05DF804FB84B00190019B5B681B6804
:108CC0000393019B5B681B68002B06D0019B5B68CC
:108CD0001A68019B5B6812681A60039B184604B00F
:108CE000704782B00190019B5B681B68184602B018
:108CF000704784B00190009100238DF80F30019BE4
:108D00005B6802930FE0029B1B68009A9A4207D1AE
:108D1000009B1A68029B1A6001238DF80F3006E051
:108D2000029B1B680293029B1B68002BEBD19DF8F2
:108D30000F30184604B0704784B00190019B9B68C7
:108D40000393019BDA68039BD31A184604B070475B
:108D500082B001900B468DF80330019B1A68019B8D
:108D6000DB68019989880B4013449DF803201A7031
:108D7000019BDB685A1C019BDA6000BF02B07047A0
:108D800084B003900B460192ADF80A30039B1A6839
:108D9000039B9968BDF80A300B44039989880B40FE
:108DA00013441A78019B1A7000BF04B0704700B5D5
:108DB00083B001900091009A00210198FFF7E0FF35
:108DC000019B9B685A1C019B9A6000BF03B05DF831
:108DD00004FB84B0039002911346ADF80630029B69
:108DE000002B01D10E231DE0BDF80630002B07D06B
:108DF000BDF806305A1EBDF806301340002B01D0D6
:108E000009230FE0039B029A1A60BDF80630013B6C
:108E10009AB2039B9A80039B00229A60039B0022D4
:108E2000DA600023184604B0704700B583B00190A3
:108E30000B468DF803300198FFF77EFF0246019B39
:108E40009B889A4207D89DF8033019460198FFF78E
:108E50007FFF002300E00423184603B05DF804FB05
:108E600000B583B0019000910198FFF765FF0346BC
:108E7000002B05D000990198FFF799FF002300E02F
:108E80000523184603B05DF804FB000000B587B069
:108E90000390029113468DF8073000230593039B3E
:108EA0001B781A46114B9B5C002B09D0039B0433A3
:108EB0009DF807200299184603F0B2F905900FE0DB
:108EC000039B1B781A46094B9B5C002B08D1039B24
:108ED0000C339DF807200299184602F0CBFB059051
:108EE000059B184607B05DF804FB00BFD41A0020AC
:108EF00000B585B0019000238DF80F30019B1B78E1
:108F00001A46114B9B5C002B08D0019B043318467A
:108F100003F01CFA03468DF80F300EE0019B1B781E
:108F20001A46094B9B5C002B07D1019B0C3318465A
:108F300002F00CFC03468DF80F309DF80F301846F8
:108F400005B05DF804FB00BFD41A002000B587B05F
:108F50000390029113468DF8073000230593039B7D
:108F60001B781A46114B9B5C002B09D0039B0433E2
:108F70009DF807200299184603F000FA05900FE0CB
:108F8000039B1B781A46094B9B5C002B08D1039B63
:108F90000C339DF807200299184602F02FFC05902B
:108FA000059B184607B05DF804FB00BFD41A0020EB
:108FB00084B00190019B9B680393019BDA68039B3B
:108FC000D31A184604B0704700B587B001900091DD
:108FD000019B1B78022B45D0022B6ADC002B52D060
:108FE000012B66D1019B1B7A002B05D1012233494D
:108FF0003348FFF7ABFF5DE0019B5B681B781946C8
:109000003048FFF712FF0590059B002B0AD0012383
:109010008DF80C30059B04932B4B1B6803AA10465C
:1090200098470DE02748FFF7C3FF0346002B07D002
:1090300000238DF80C30244B1B6803AA1046984778
:109040002048FFF7B5FF03461E4A9288934205D891
:1090500001221A491A48FFF779FF2BE01B4B012226
:109060001A7027E002238DF80C30019BDB68049313
:10907000012212491248FFF769FF134B1B6803AA2C
:109080001046984716E012491248FFF7E9FE0346DA
:10909000002B05D101220E490948FFF7F7FE09E030
:1090A00003238DF80C30084B1B6803AA1046984721
:1090B00000E000BF00BF07B05DF804FB8C1A002081
:1090C00000190020901A0020841A00208D1A002018
:1090D000881A0020A01A002030B591B003900291A8
:1090E00001928DF803303C4A019B1360029B002BD8
:1090F00001D107236DE0029B1968029B5B689BB25C
:109100001A463648FFF765FE0F900F9B0E930E9B95
:10911000002B01D00E9B5CE0029B9968029BDB68F0
:109120009BB21A462E48FFF754FE0F900F9B0D93EB
:109130000D9B002B01D00D9B4BE02A4B04AC1D4630
:109140000FCD0FC495E80F0084E80F00039B5B6907
:109150000A93039B1B7C002B14BF01230023DBB26B
:109160008DF824309DF803308DF82C30039B5B7C08
:10917000002B01D00E2300E000238DF82530039B47
:10918000DB680693039B9B680793039B1B6805930F
:10919000039B5B68049304AB134A1946134800F021
:1091A000FBFE0F900F9B0C930C9B002B01D00C9B94
:1091B0000FE00F4B00221A70039B1B68B3F1FF3FB7
:1091C00006D001220B490948FFF7C0FE034600E024
:1091D0000023184611B030BD841A0020901A0020D8
:1091E000A01A0020441B0300C98F020000190020B0
:1091F0008D1A00208C1A002000B587B00190114B09
:109200001B788DF8173001990F48FFF729FE04905D
:109210009DF81730002B10D00A4B00221A70012243
:109220000A490B48FFF792FE0390039B0293029BAF
:10923000002B02D00298FEF79FFB049B184607B054
:109240005DF804FB8D1A0020901A00208C1A002073
:109250000019002000B585B003468DF807309DF851
:10926000073019461048FFF7E0FD0390039B002BE1
:1092700015D10E48FFF73CFE034683F00103DBB235
:10928000002B0CD00A490848FFF7EAFD0346002BE3
:1092900005D1012206490548FFF7F8FD0390039B1D
:1092A000184605B05DF804FBA01A00200019002044
:1092B000881A002000B583B001900091019BDBB2B9
:1092C0001846FFF7C7FF019B184603B05DF804FB83
:1092D000BFF34F8F00BF064BDB6803F4E062044925
:1092E000044B1343CB60BFF34F8F00BF00BFFDE7BC
:1092F00000ED00E00400FA0582B0164B1B680193F4
:10930000154B1B680093019B082B1FD1009B052B5D
:109310001AD801A252F823F03193020035930200CB
:10932000399302003D9302004193020045930200ED
:1093300001230CE001230AE0012308E0012306E0F9
:10934000012304E0012302E0012300E0002318468A
:1093500002B07047300100103401001082B0164B8B
:109360001B680193154B1B680093019B082B1FD1B1
:10937000009B052B1AD801A252F823F09593020006
:10938000999302009D930200A1930200A59302000D
:10939000A993020001230CE001230AE0012308E065
:1093A000012306E0012304E0012302E0012300E0A1
:1093B0000023184602B0704730010010340100103D
:1093C00082B0164B1B680193154B1B680093019BE1
:1093D000082B1FD1009B052B1AD801A252F823F0AD
:1093E000F9930200FD93020001940200059402002B
:1093F000099402000D94020001230CE000230AE00E
:10940000002308E0002306E0002304E0002302E03C
:10941000002300E00023184602B07047300100101E
:109420003401001082B0164B1B680193154B1B686A
:109430000093019B082B1FD1009B052B1AD801A27A
:1094400052F823F05D9402006194020065940200DA
:10945000699402006D9402007194020001230CE0F3
:1094600000230AE0002308E0002306E0002304E0D4
:10947000002302E0002300E00023184602B07047FA
:10948000300100103401001082B0164B1B680193AC
:10949000154B1B680093019B082B1FD1009B052BCC
:1094A0001AD801A252F823F0C1940200C594020018
:1094B000C9940200CD940200D1940200D594020018
:1094C00001230CE000230AE0002308E0002306E06B
:1094D000002304E0002302E0002300E000231846FC
:1094E00002B07047300100103401001082B0164BFA
:1094F0001B680193154B1B680093019B082B1FD120
:10950000009B052B1AD801A252F823F025950200E2
:10951000299502002D950200319502003595020033
:109520003995020001230CE000230AE0002308E043
:10953000002306E0002304E0002302E0002300E013
:109540000023184602B070473001001034010010AB
:1095500082B0164B1B680193154B1B680093019B4F
:10956000082B1FD1009B052B1AD801A252F823F01B
:10957000899502008D950200919502009595020053
:10958000999502009D95020001230CE001230AE059
:10959000012308E0012306E0012304E0012302E0A7
:1095A000012300E00023184602B07047300100108C
:1095B0003401001082B0164B1B680193154B1B68D9
:1095C0000093019B082B1FD1009B052B1AD801A2E9
:1095D00052F823F0ED950200F1950200F595020096
:1095E000F9950200FD9502000196020000230CE0AF
:1095F00000230AE0002308E0002306E0012304E042
:10960000012302E0012300E00023184602B0704766
:10961000300100103401001008B5FFF7CBFF0346FE
:10962000002B07D04FF010234FF08042D3F80832C0
:10963000C2F8583500BF08BD00BF044BD3F8003452
:10964000002BFAD000BF00BF704700BF00E0014010
:1096500000B583B00190054A019BC2F80435FFF7BD
:10966000EBFF00BF03B05DF804FB00BF00E001406A
:10967000024B034A1A6000BF704700BF1419002054
:109680000090D00308B5FFF737FE0346002B0ED03D
:109690004FF080430022C3F80C214FF0804300229A
:1096A000C3F810214FF080430022C3F83825FFF79C
:1096B00055FE0346002B76D04FF08053734AD3F803
:1096C0000434C2F820354FF08053704AD3F8083480
:1096D000C2F824354FF080536C4AD3F80C34C2F8EA
:1096E00028354FF08053694AD3F81034C2F82C352E
:1096F0004FF08053654AD3F81434C2F830354FF038
:109700008053624AD3F81834C2F834354FF080538E
:109710005E4AD3F81C34C2F840354FF080535B4AA0
:10972000D3F82034C2F844354FF08053574AD3F869
:109730002434C2F848354FF08053544AD3F82834C3
:10974000C2F84C354FF08053504AD3F82C34C2F84D
:1097500050354FF080534D4AD3F83034C2F8543569
:109760004FF08053494AD3F83434C2F860354FF093
:109770008053464AD3F83834C2F864354FF08053EA
:10978000424AD3F83C34C2F868354FF080533F4A20
:10979000D3F84034C2F86C354FF080533B4AD3F8CD
:1097A0004434C2F87035FFF70BFE0346002B02D09D
:1097B000374B384A1A60FFF735FE0346002B03D0BB
:1097C000354BFB22C3F81825FFF75EFE0346002B3E
:1097D0000AD0324B1B6823F00F02314B1B6803F099
:1097E0000F032E4913430B60FFF780FE0346002B47
:1097F00003D02C4B4FF400721A60FFF7A9FE03460A
:10980000002B0DD04FF08043D3F8003403F0010358
:10981000002B05D04FF080436FF00102C3F8002405
:10982000214BD3F88830204A43F47003C2F88830C3
:10983000BFF34F8F00BFBFF36F8F00BFFFF7ECFE8A
:109840004FF01023D3F80032002B05DB4FF010232C
:10985000D3F80432002B15DA0120FFF7F9FE4FF0A0
:1098600010231222C3F80022FFF7E6FE4FF0102368
:109870001222C3F80422FFF7DFFE0020FFF7E8FE04
:10988000FFF726FDFFF7F4FE00BF08BD00C0004053
:109890008C5600404881030000F00040E40E004078
:1098A000580200104096024000ED00E082B00190A6
:1098B000019B1B681F2B02D84FF0A04306E0019BC1
:1098C0001B6803F01F02019B1A60024B184602B08E
:1098D000704700BF0003005000B585B001900846F6
:1098E00011461A4603468DF803300B468DF80230B8
:1098F00013468DF8013001AB1846FFF7D7FF0390F0
:109900009DF803209DF802305B001A439DF801305A
:109910009B001A439DF818301B0242EA03019DF890
:109920001C301B04019A1943039B02F5E07243F8B3
:10993000221000BF05B05DF804FB00B585B00390B0
:1099400000230193002300930023012201210398A7
:10995000FFF7C2FF00BF05B05DF804FB00B585B09E
:1099600003900B468DF80B309DF80B3000220192CE
:1099700000220092002200210398FFF7ADFF00BFF4
:1099800005B05DF804FB00B585B0019001AB184649
:10999000FFF78CFF0390019B012202FA03F31946A3
:1099A000039800F069F800BF05B05DF804FB00B54E
:1099B00085B0019001AB1846FFF778FF0390019B3B
:1099C000012202FA03F31946039800F05FF800BF82
:1099D00005B05DF804FB00B585B0019001AB1846F9
:1099E000FFF764FF0390039BD3F804350293029BB7
:1099F000DA43019B012101FA03F31A40039BC3F8E8
:109A00000825019B01229A40029B1A40039BC3F840
:109A10000C2500BF05B05DF804FB00B583B00190D4
:109A20000091009B002B03D10198FFF7C0FF02E0DB
:109A30000198FFF7A8FF00BF03B05DF804FB00B575
:109A400085B0019001AB1846FFF730FF03900398F3
:109A500000F00AF80246019B22FA03F303F0010327
:109A6000184605B05DF804FB82B00190019BD3F865
:109A70000435184602B0704782B001900091019BF6
:109A8000009AC3F8082500BF02B0704782B0019069
:109A90000091019B009AC3F80C2500BF02B07047EB
:109AA00000B585B001900F4A019B13441B781846FE
:109AB000FFF7C5FF0346002B14BF012300238DF8D9
:109AC0000F309DF80F30002B14BF01230023DBB2B1
:109AD00083F00103DBB203F00103DBB2184605B0EB
:109AE0005DF804FB641B030000B583B00190064AD7
:109AF000019B13441B7800211846FFF78EFF00BF1F
:109B000003B05DF804FB00BF641B030000B583B025
:109B10000190064A019B13441B7801211846FFF768
:109B20007CFF00BF03B05DF804FB00BF641B0300B3
:109B300000B583B00023019305E00198FFF7E6FF2D
:109B4000019B01330193019B032BF6D900BF00BF9A
:109B500003B05DF804FB00B583B00023019305E07A
:109B60000198FFF7C1FF019B01330193019B032B78
:109B7000F6D900BF00BF03B05DF804FB00B583B0A9
:109B80000190054A019B13441B781846FFF723FFF9
:109B900000BF03B05DF804FB641B030000B583B095
:109BA0000023019309E0094A019B13441B781846DE
:109BB000FFF7C3FE019B01330193019B032BF2D9F5
:109BC000FFF7B6FF00BF03B05DF804FB641B0300A2
:109BD00000B583B0002301930AE0094A019B1344B6
:109BE0001B7803211846FFF7B9FE019B013301934F
:109BF000019B032BF1D900BF00BF03B05DF804FB4C
:109C0000681B030084B001904FF0FF3302930023E0
:109C100003930DE00A4A039B13441B781A46019BE9
:109C2000934202D1039B029305E0039B013303930C
:109C3000039B032BEED9029B184604B0704700BF6C
:109C4000681B030000B583B00190019B03F0010382
:109C5000002B01D0FFF7A2FF019B03F00203002BB2
:109C600001D0FFF7B5FF00BF03B05DF804FB0000B3
:109C700082B003468DF807309DF90730002B13DBC7
:109C80009DF8073003F01F0209499DF907305B0971
:109C9000012000FA02F2203341F82320BFF34F8F56
:109CA00000BFBFF36F8F00BF00BF02B0704700BF9F
:109CB00000E100E0044BD3F80034002B14BF012373
:109CC0000023DBB2184670470000014008B5FFF7DB
:109CD000F1FF034683F00103DBB2002B04D000F058
:109CE000F1FA024B00229A7000BF08BDB01A0020A2
:109CF00000B583B000230193184B1B78002B02D0D2
:109D0000852301931CE0154B00229A60134B00221F
:109D10005A60124B00221A61104B0022DA60104880
:109D200000F0AEFA019004F07FFC034683F00103DB
:109D3000DBB2002B01D000F0BDFA084B01221A70F3
:109D4000FFF7B8FF0346002B02D0044B01229A70A4
:109D5000019B184603B05DF804FB00BFB01A002059
:109D6000119E020084B00190019B1B680393039B2A
:109D7000002B03D0039B1A68019B1A60039B1846B3
:109D800004B0704700B583B000238DF807300DF1A3
:109D900007031846FEF75EFA094BDB68013B084AE9
:109DA000D360074BDB68002B01D1FFF78FFF9DF8D5
:109DB00007301846FEF758FA00BF03B05DF804FB01
:109DC000B01A002000B585B003468DF807309DF825
:109DD0000730002B02D10C4B039301E00B4B039394
:109DE0000398FFF7BFFF0290029B002B06D0029B57
:109DF0005B689DF8072010469847F1E700BF00BF59
:109E000005B05DF804FB00BFB81A0020C01A00209E
:109E100000B583B003468DF807309DF80730002B5E
:109E200005D10A4B01225A700020FFF7CBFF9DF8A5
:109E30000730012B05D1054B01229A700120FFF755
:109E4000C1FF00BF03B05DF804FB00BFB01A0020E3
:109E500000B583B001900091019B002B05D1054B0B
:109E600001225A700020FFF7ADFF00BF03B05DF87C
:109E700004FB00BFB01A002000B585B00346009176
:109E80008DF807309DF80730032B29D0032B2CDCED
:109E9000002B02D0012B04D027E00020FFF7E8FEC2
:109EA00024E000238DF80F300DF10F031846FEF764
:109EB000D1F9104B1B7883F00103DBB2002B01D0EA
:109EC000FFF716FF0B4BDB6801330A4AD360094BDF
:109ED00001229A709DF80F301846FEF7C5F905E08B
:109EE00000F0E8F9FFF74EFF00E000BF00BF05B04B
:109EF0005DF804FBB01A002000B589B00190009114
:109F0000009B0793019B1B788DF80C30019B5B68CD
:109F10000493019B9B68DBB28DF81430019BDB68D6
:109F20000693074A079B52F823300649079A51F8CF
:109F3000221003AA1046984700BF09B05DF804FB41
:109F4000C41A0020CC1A002000B589B001900091FD
:109F5000009B0793019B1B788DF80C30019B5B687D
:109F60000493019B9B68DBB28DF81430019BDB6886
:109F70000693074A079B52F823300649079A51F87F
:109F8000221003AA1046984700BF09B05DF804FBF1
:109F9000C41A0020CC1A002030B58FB00390029173
:109FA0000192039B1B780C9326490C9B019A41F864
:109FB0002320029B1A6924490C9B41F82320029B11
:109FC0005B7F1946214A0C9B13440A461A70029B78
:109FD00004AC1D460FCD0FC495E80F0084E80F00B8
:109FE0000C9B089300230D93039B1B781A46174B79
:109FF0009B5C002B0DD0039B181D019B002B01D0F7
:10A00000134A00E0002204AB194602F0ABF80D90B1
:10A0100014E0039B1B781A460C4B9B5C002B0DD164
:10A02000039B03F10C00019B002B01D0094A00E0C7
:10A03000002204AB194601F073FA0D900D9B1846EF
:10A040000FB030BDC41A0020CC1A0020D41A002052
:10A05000F99E0200499F020082B003468DF8073046
:10A060009DF90730002B0CDB9DF8073003F01F0231
:10A0700005499DF907305B09012000FA02F241F819
:10A08000232000BF02B0704700E100E082B0034629
:10A0900000918DF807309DF90730002B0ADB009BFB
:10A0A000DAB20C499DF907305201D2B20B4483F861
:10A0B00000230BE0009BDAB207499DF8073003F05C
:10A0C0000F03043B5201D2B20B441A7600BF02B018
:10A0D000704700BF00E100E000ED00E082B00190B9
:10A0E000019B1B0B5BB2184602B0704700B583B0F2
:10A0F00003460A468DF8073013468DF806309DF862
:10A1000006209DF9073011461846FFF7BFFF00BF34
:10A1100003B05DF804FB00B583B003468DF807304B
:10A120009DF907301846FFF797FF00BF03B05DF8B1
:10A1300004FB000082B003468DF807300F4A9DF9FA
:10A140000730002B00DA1F335B115BB252F823207B
:10A150009DF90730594203F01F0301F01F0158BF5A
:10A160004B425BB222FA03F303F00103002B14BF4E
:10A1700001230023DBB2184602B0704700E100E083
:10A1800082B001904FF08042019BC2F8083300BFBB
:10A1900002B0704782B003468DF807309DF8073053
:10A1A00003F1804301221A6000BF02B0704784B0FF
:10A1B0000346ADF80630BDF8063003F180430022B7
:10A1C0001A60BDF8063003F180431B680393039BBC
:10A1D00000BF04B0704782B00346ADF80630BDF84A
:10A1E000063003F180431B68002B14BF01230023BA
:10A1F000DBB2184602B0704782B001904FF0804247
:10A20000019BC2F8183500BF02B070474FF0804381
:10A21000D3F818341B0C03F00103002B14BF0123E7
:10A220000023DBB21846704700B583B006238DF8D3
:10A2300007304FF08040FFF751FF03461846FFF705
:10A2400079FF034683F00103DBB2002B13D04FF0FC
:10A250008040FFF743FF03461A469DF80730194632
:10A260001046FFF743FF4FF08040FFF737FF0346EC
:10A270001846FFF750FF00BF03B05DF804FB000075
:10A2800084B0019000230393094B1B79002B02D06B
:10A290008523039308E0064A019B1360044B0122C7
:10A2A0001A71034B00225A71039B184604B0704781
:10A2B000D81A002008B5FFF7B7FF0120FFF79CFF71
:10A2C00000BF08BD08B50220FFF75AFF4FF48270A7
:10A2D000FFF76DFF0C20FFF75DFF00BFFFF796FF54
:10A2E0000346002BFAD100BF00BF08BD08B54FF4EC
:10A2F0008070FFF770FF0346002B14D04FF480707E
:10A30000FFF755FF0120FFF73BFF114B5B7983F00F
:10A310000103DBB2002B06D00D4B01225A710C4B0E
:10A320001B68002098474FF48270FFF754FF0346E4
:10A33000002B0AD04FF48270FFF739FF0220FFF79D
:10A340001FFF034B1B680120984700BF08BD00BFDB
:10A35000D81A002082B003468DF807309DF90730E7
:10A36000002B0CDB9DF8073003F01F0205499DF917
:10A3700007305B09012000FA02F241F8232000BFF8
:10A3800002B0704700E100E082B0034600918DF812
:10A3900007309DF90730002B0ADB009BDAB20C492D
:10A3A0009DF907305201D2B20B4483F800230BE031
:10A3B000009BDAB207499DF8073003F00F03043B16
:10A3C0005201D2B20B441A7600BF02B0704700BFF0
:10A3D00000E100E000ED00E082B00190019B1B0B6A
:10A3E0005BB2184602B0704700B583B003460A4618
:10A3F0008DF8073013468DF806309DF806209DF93C
:10A40000073011461846FFF7BFFF00BF03B05DF8E5
:10A4100004FB00B583B003468DF807309DF9073083
:10A420001846FFF797FF00BF03B05DF804FB00B5C7
:10A4300083B00346ADF80630BDF80630184600F08C
:10A4400026F803461B68012B0CBF01230023DBB257
:10A45000184603B05DF804FB00B585B00346ADF8BF
:10A460000630BDF80630184600F011F803461A46CB
:10A4700000231360BDF80630184600F008F80346C4
:10A480001B680393039B00BF05B05DF804FB82B01B
:10A490000346ADF80630BDF8063003F1804303F5FE
:10A4A000C043184602B0704782B00190034A019B36
:10A4B000C2F8043300BF02B0704700BF0060004024
:10A4C00082B00190034BD3F80423019B134018463C
:10A4D00002B070470060004082B00190084A019BC2
:10A4E00003F5A27352F82330054943F00102019BA2
:10A4F00003F5A27341F8232000BF02B0704700BFEC
:10A500000060004084B00390029113468DF807303C
:10A51000144A039B03F5A27352F82330114923F424
:10A520004F3323F44073039A02F5A27241F82230AC
:10A530000C4A039B03F5A27352F82320029B1B02D3
:10A5400003F47C519DF807301B0403F440330B43A4
:10A5500004491A43039B03F5A27341F8232000BF6B
:10A5600004B070470060004082B00190054A019B32
:10A5700003F5A27352F823301B0A03F03F03184679
:10A5800002B070470060004082B00190064A019B13
:10A5900003F5A27352F823301B0C03F00303DBB264
:10A5A000184602B0704700BF0060004082B00190C2
:10A5B000019B1B681F2B02D84FF0A04306E0019BB4
:10A5C0001B6803F01F02019B1A60024B184602B081
:10A5D000704700BF0003005000B585B001900846E9
:10A5E00011461A4603468DF803300B468DF80230AB
:10A5F00013468DF8013001AB1846FFF7D7FF0390E3
:10A600009DF803209DF802305B001A439DF801304D
:10A610009B001A439DF818301B0242EA03019DF883
:10A620001C301B04019A1943039B02F5E07243F8A6
:10A63000221000BF05B05DF804FB00B585B00390A3
:10A640000B468DF80B309DF80B3000220192002252
:10A650000092002200210398FFF7BEFF00BF05B063
:10A660005DF804FB00B585B0019001AB1846FFF71B
:10A670009DFF0390019A039B02F5E07253F822308C
:10A6800023F002030293019A039B02F5E072029900
:10A6900043F8221000BF05B05DF804FB00B585B09B
:10A6A00001900B468DF8033001AB1846FFF77EFF93
:10A6B0000390019A039B02F5E07253F82230019A4D
:10A6C00023F44031039B02F5E07243F82210019A13
:10A6D000039B02F5E07253F822309DF80320120428
:10A6E0001146019A1943039B02F5E07243F82210C8
:10A6F00000BF05B05DF804FB00B585B0019001AB6B
:10A700001846FFF753FF0390039800F020F8024625
:10A71000019B22FA03F303F00103184605B05DF82C
:10A7200004FB00B585B0019001AB1846FFF73EFF72
:10A730000390019A039B02F5E07253F822301B0C40
:10A7400003F00303DBB2184605B05DF804FB82B0EA
:10A750000190019BD3F81035184602B070470000F5
:10A7600088B0039002910192164A05AB92E803006B
:10A7700083E80300039B079319E0079B9B002033AA
:10A780006B4453F80C3CD3F82025019B1A60079BBF
:10A790009B0020336B4453F80C3C019A1268C3F8B9
:10A7A0002025019B04330193079B01330793039AF0
:10A7B000029B1344079A9A42DFD300BF00BF08B040
:10A7C000704700BF6C1B030000B585B0019001AB62
:10A7D0001846FFF7EBFE0390019B012202FA03F3F8
:10A7E0001A46039BC3F8202500BF05B05DF804FBA3
:10A7F00084B00190019B5B09029300230393029BA9
:10A80000002B03D0029B012B04D007E04FF0FF3355
:10A81000039303E04FF6FF73039300BF019B03F024
:10A820001F030193039A019B22FA03F303F0010330
:10A83000002B14BF01230023DBB2184604B070477D
:10A8400084B001900091009B0393019BDB0802936D
:10A85000019B03F0070301930122019B02FA03F31A
:10A860000399029A0A4412781340184604B07047BC
:10A8700084B001900091009B0393019BDB0802933D
:10A88000019B03F007030193039A029B13441B7877
:10A890005AB20121019B01FA03F35BB2134359B28F
:10A8A000039A029B1344CAB21A7000BF04B07047E7
:10A8B00082B001900C4A019B1344303393F900306D
:10A8C000002B09DB084A019B1344303393F9003015
:10A8D000072B01DC012300E0002303F00103DBB2BE
:10A8E000184602B0704700BFE01A002082B0019005
:10A8F000064A019B1344303393F90030072BCCBF39
:10A9000001230023DBB2184602B07047E01A002092
:10A9100082B00190064A019B1344303393F9003012
:10A92000DB43DBB2DB09DBB2184602B0704700BF85
:10A93000E01A002084B00390029101928DF8033058
:10A94000029B59B20E4A039B134430330A461A70D5
:10A950000B49029B019A41F823209DF8033083F0B4
:10A960000103DBB2002B08D0029B083B039A51B2D3
:10A97000034A13440A4683F8602000BF04B07047BE
:10A98000E01A002082B00190044A019B1344303346
:10A99000FF221A7000BF02B0704700BFE01A00200B
:10A9A00000B583B0019004490198FFF761FF00BF33
:10A9B00003B05DF804FB00BF441B002082B001908F
:10A9C000044A019B1344303393F90030184602B017
:10A9D000704700BFE01A002082B00190034A019B3B
:10A9E00052F82330184602B0704700BFE01A00202A
:10A9F00084B00190074A019B1344603393F90030FF
:10AA00008DF80F309DF80F3023F0C003184604B0C6
:10AA1000704700BFE01A002084B00190074A019BF4
:10AA20001344603393F900308DF80F309DF80F30E8
:10AA30009B09DBB2184604B0704700BFE01A002043
:10AA400000B589B00390029113468DF80730FF23BB
:10AA50008DF81F309DF80730002B01D0002300E057
:10AA6000082305939DF80730002B01D0082300E050
:10AA70000C230493059B069314E00F4A069B52F89F
:10AA80002330B3F1FF3F0AD19DF80730029A0699AF
:10AA90000398FFF74FFF069B8DF81F3006E0069BDB
:10AAA00001330693069A049B9A42E6D39DF91F3020
:10AAB000184609B05DF804FBE01A002082B0034696
:10AAC0008DF807309DF80730094A4FF0FF3142F802
:10AAD00023109DF80730072B07D99DF80730083B56
:10AAE000034A1344FF2283F8602000BF02B070477E
:10AAF000E01A002000B583B02D4B93F86A30002B8C
:10AB000003D008230093009B4EE000238DF807300C
:10AB100011E09DF807301846FFF76AFE0346002B48
:10AB200004D09DF807301846FFF72CFF9DF807303A
:10AB300001338DF807309DF807302F2BE9D900231A
:10AB40008DF8073009E09DF807301846FFF7B6FF8B
:10AB50009DF8073001338DF807309DF807300B2B37
:10AB6000F1D906220021134805F001FA1248FFF737
:10AB700033FC034606211846FFF736FC0E48FFF764
:10AB80002BFC03461846FFF744FC4FF4BE70FFF75A
:10AB900063FC4FF00040FFF787FC054B012283F870
:10ABA0006A2000230093009B184603B05DF804FB65
:10ABB000E01A0020441B002000600040044B93F882
:10ABC0006A30002B14BF01230023DBB21846704704
:10ABD000E01A002000B587B0039002910192002393
:10ABE00005930398FFF794FE0346002B02D0082339
:10ABF000059357E0029B9B78C3F34003DBB21A46F0
:10AC000001990398FFF71CFF03468DF813309DF957
:10AC10001330B3F1FF3F43D0029B9B78C3F3800313
:10AC2000DBB283F00103DBB2002B13D0029B9B78D5
:10AC300003F00103DBB2002B03D00398FFF712FDF2
:10AC400005E0029B5B7819460398FFF7F6FC039832
:10AC5000FFF7A6FE029B9B7803F00203DBB2002BFA
:10AC600008D09DF91300029B1B781A460399FFF741
:10AC700049FC17E09DF91330083B0D4A134493F942
:10AC80006010029B1B789B015AB29DF91330083B60
:10AC90000A4351B2064A13440A4683F8602001E091
:10ACA00004230593059B184607B05DF804FB00BF1D
:10ACB000E01A002000B589B001900B468DF80330F2
:10ACC0000198FFF713FE0346002B2AD00198FFF7E7
:10ACD00075FE0346083B1846FFF79EFE03468DF8B7
:10ACE0000F309DF80F30032B0BD10198FFF704FDB7
:10ACF0000346002B01D0032300E002238DF81F3010
:10AD000008E09DF80F30012B01D1022300E003235E
:10AD10008DF81F309DF81F3019460198FFF7BEFCD3
:10AD200030E00198FFF7C4FD0346002B2AD00198BC
:10AD3000FFF744FE03460693069B9BB240339BB24B
:10AD40009B00ADF81630069B1846FFF7C5FBBDF813
:10AD500016301846FFF780FB9DF80330002B11D00A
:10AD60000198FFF72BFE03461846FFF735FE0490C7
:10AD7000049B002B06D00122069B02FA03F318461F
:10AD8000FFF792FB00BF09B05DF804FB00B583B08C
:10AD900001900198FFF7B0FC0346002B14BF01237C
:10ADA0000023DBB2184603B05DF804FB00B585B0A4
:10ADB0000190019A02210020FFF7D2FC00230393A7
:10ADC0000BE0039B9B00019A13441B68002B01D0EE
:10ADD000012306E0039B01330393039B012BF0D96E
:10ADE0000023184605B05DF804FB000000B587B0ED
:10ADF0000190002305935BE0344A059B13446033C4
:10AE000093F90030B3F1FF3F4ED00598FFF7F0FD06
:10AE1000049001990498FFF713FD0346002B44D0DA
:10AE20000598FFF7F9FD03468DF80F300498FFF7FA
:10AE300078FC03468DF80E309DF80E30022B01D1C0
:10AE4000032300E002238DF80D309DF80D301946E4
:10AE50000498FFF723FC0498FFF7B6FC0498FFF76B
:10AE6000ADFD03461846FFF7B7FD0290029B002B8D
:10AE70001BD09DF80F30032B0FD09DF80E30022B06
:10AE800003D19DF80F30012B07D09DF80E30032B16
:10AE90000BD19DF80F30022B07D19DF80F20029B9C
:10AEA00011460498984700E000BF059B01330593C5
:10AEB000059B032BA0D90198FFF778FF0346002BD1
:10AEC00097D100BF00BF07B05DF804FBE01A002077
:10AED00000B58BB00023099301AB00221A605A60C1
:10AEE0004FF48073ADF81E300123069300230893BE
:10AEF00021E0BDF81E301846FFF799FA0346002BF3
:10AF00000ED00698FFF7DCFA0346002B08D0BDF8F8
:10AF10001E301846FFF7A0FA099A069B13430993BF
:10AF2000069B5B000693BDF81E300433ADF81E305F
:10AF3000089B01330893089B072BDAD94FF4BE70A6
:10AF4000FFF775FA0346002B0DD04FF4BE70FFF7E4
:10AF500083FA099B43F00043099301AB1A4602218F
:10AF60000020FFF7FDFB099BDBB2002B29D001235A
:10AF700006930023089321E0069A099B1340002BB7
:10AF800016D00898FFF7F0FA05900898FFF7FCFA3A
:10AF900003468DF813300898FFF71EFD0390039BBE
:10AFA000002B05D09DF81320039B11460598984768
:10AFB000069B5B000693089B01330893089B072BB5
:10AFC000DAD9099B002B03DA01AB1846FFF70EFF15
:10AFD00000BF0BB05DF804FB08B5024B1B68984737
:10AFE00000BF08BD4C1B002082B00190019B044AA9
:10AFF000934201D1034B00E00023184602B0704792
:10B00000002000404C1B002000B587B0019000914B
:10B010000198FFF7E9FF0490049B002B25D0002343
:10B020008DF8173000238DF80B300DF10B03184607
:10B03000FDF710F9049B1B79002B03D001238DF839
:10B04000173005E0049B009A1A60049B01221A71D4
:10B050009DF80B301846FDF707F99DF81730002BC7
:10B0600003D011230393039B02E000230393039B6C
:10B07000184607B05DF804FB82B003468DF8073030
:10B080009DF90730002B0CDB9DF8073003F01F0201
:10B0900005499DF907305B09012000FA02F241F8E9
:10B0A000232000BF02B0704700E100E082B00346F9
:10B0B00000918DF807309DF90730002B0ADB009BCB
:10B0C000DAB20C499DF907305201D2B20B4483F831
:10B0D00000230BE0009BDAB207499DF8073003F02C
:10B0E0000F03043B5201D2B20B441A7600BF02B0E8
:10B0F000704700BF00E100E000ED00E082B0019089
:10B10000019B1B0B5BB2184602B0704700B583B0C1
:10B1100003460A468DF8073013468DF806309DF831
:10B1200006209DF9073011461846FFF7BFFF00BF04
:10B1300003B05DF804FB00B583B003468DF807301B
:10B140009DF907301846FFF797FF00BF03B05DF881
:10B1500004FB84B001900B46ADF80230BDF802301C
:10B16000019A134400221A60BDF80230019A134478
:10B170001B680393039B00BF04B0704782B001902B
:10B180000B46ADF80230BDF80230019A13441B683B
:10B19000002B14BF01230023DBB2184602B0704716
:10B1A00082B001900091019B009AC3F8042300BF74
:10B1B00002B0704782B001900091019BD3F8042344
:10B1C000009B1340002B14BF01230023DBB2184661
:10B1D00002B0704782B001900091019B009AC3F8C1
:10B1E000082300BF02B0704784B00190019BD3F8E0
:10B1F00080340393019B039AC3F88024039B184671
:10B2000004B0704782B00190019B0422C3F800256E
:10B2100000BF02B0704784B0039002910192039B7B
:10B22000019AC3F81425039B029AC3F80C2500BFAA
:10B2300004B0704784B0039002910192039B029A7C
:10B24000C3F80825039B019AC3F8102500BF04B07A
:10B25000704782B00190019BD3F81835DBB21846D5
:10B2600002B0704782B001900B468DF803309DF814
:10B270000320019BC3F81C2500BF02B0704782B0B9
:10B2800001900B468DF803309DF80330019A13446A
:10B2900001221A6000BF02B0704782B001900B46D5
:10B2A0008DF8033013468DF802309DF803209DF889
:10B2B00002301343DBB21A46019BC3F86C2500BF72
:10B2C00002B0704782B001900091019B009AC3F8D0
:10B2D000242500BF02B0704782B00190019B1B681B
:10B2E0001F2B02D84FF0A04306E0019B1B6803F020
:10B2F0001F02019B1A60024B184602B0704700BF44
:10B300000003005000B585B00190084611461A466A
:10B3100003468DF803300B468DF8023013468DF846
:10B32000013001AB1846FFF7D7FF03909DF80320CB
:10B330009DF802305B001A439DF801309B001A43D0
:10B340009DF818301B0242EA03019DF81C301B04D3
:10B35000019A1943039B02F5E07243F8221000BFE3
:10B3600005B05DF804FB00B585B0039000230193A0
:10B37000002300930023012201210398FFF7C2FF5D
:10B3800000BF05B05DF804FB00B585B003900B4627
:10B390008DF80B309DF80B300022019200220092B4
:10B3A000002200210398FFF7ADFF00BF05B05DF854
:10B3B00004FB00B585B0019001AB1846FFF78CFF88
:10B3C0000390019B012202FA03F31946039800F04F
:10B3D00004F800BF05B05DF804FB82B00190009155
:10B3E000019B009AC3F8082500BF02B0704700B562
:10B3F00083B001900091009B1B68B3F1FF3F09D01F
:10B40000009B1B681846FFF7D4FF009B1B6818467B
:10B41000FFF7A9FF009B5B68B3F1FF3F05D0009BDE
:10B420005B6800211846FFF7AFFF019B1A68009B7D
:10B430009B6919461046FFF745FF019B1868009B62
:10B44000597D009B1B7D1A46FFF727FF019B18685B
:10B45000009B1968009B5B681A46FFF7DCFE009BA7
:10B460001B7D012B22D1009B9B68B3F1FF3F05D0D0
:10B47000009B9B6800211846FFF786FF009BDB6856
:10B48000B3F1FF3F09D0009BDB681846FFF791FF3F
:10B49000009BDB681846FFF766FF019B1868009B5E
:10B4A000D968009B9B681A46FFF7C4FE00BF03B033
:10B4B0005DF804FB00B583B001900B468DF80330B6
:10B4C000019B1B684FF48E711846FFF742FE019BEB
:10B4D0001B684FF4A2711846FFF73BFE019B1B68E7
:10B4E0000E491846FFF75CFE019B1B681846FFF7E4
:10B4F00005FE03461A469DF8033019461046FFF72D
:10B5000005FE019B1B681846FFF7F8FD0346184629
:10B51000FFF711FE00BF03B05DF804FB80000200DE
:10B5200000B587B0039002910192039B1B791A46E4
:10B530002C2302FB03F3284A1344059300230493AE
:10B54000059B93F82A30002B03D008230493049B17
:10B550003EE0039B1A68039B1B7919461F4B53F867
:10B56000213019461046FFF74FFD0346002B03D04C
:10B5700011230493049B2BE002990398FFF737FFF4
:10B58000059B019A5A60029B1A69059B1A60059BEC
:10B590005B68002B05D0029B1B7F19460398FFF7C1
:10B5A00089FF039B1B681846FFF72CFE059B0022B2
:10B5B0009A61059B0022DA61059B002283F829200D
:10B5C000059B00225A61059B012283F82A20049BD7
:10B5D000184607B05DF804FB541B0020741B0300E1
:10B5E00000B585B0019000914FF48E710198FFF77E
:10B5F000B0FD009B9A68009B1B6A13441B788DF872
:10B600000F30009B1B6A5A1C009B1A629DF80F307A
:10B6100019460198FFF726FE00BF05B05DF804FB50
:10B6200000B585B001900091009B5B69039316E023
:10B63000009B93F82830DBB2002B01D0002314E0EC
:10B640004FF48E710198FFF799FD034683F00103D3
:10B65000DBB2002BECD100990198FFF7C1FF009BF2
:10B660001B6A039A9A42EBD80123184605B05DF88D
:10B6700004FB000000B587B0039002910192039B88
:10B680001B791A462C2302FB03F32F4A134404931D
:10B69000039800F05BF80346002B03D011230593B9
:10B6A000059B4CE0049B019A5A61049B029A9A60A4
:10B6B000049B00221A62049B002283F828200023A6
:10B6C0000593039B1B684FF48E711846FFF741FDED
:10B6D000039B1B6808211846FFF7D1FD039B1B68DD
:10B6E00004991846FFF77CFF049B5B68002B25D16B
:10B6F000039B1B6804991846FFF792FF034683F0EB
:10B700000103DBB2002B02D00F23059313E000BF2F
:10B71000039B1B684FF48E711846FFF72FFD0346FD
:10B7200083F00103DBB2002BF2D1039B1B680C21D9
:10B730001846FFF7A4FD049B00225A61059B18469A
:10B7400007B05DF804FB00BF541B002082B00190DD
:10B75000019B1B791946074A2C2301FB03F3134471
:10B7600014331B68002B14BF01230023DBB21846DF
:10B7700002B07047541B002000B583B00190019BBC
:10B780001B684FF492711846FFF7E3FC019B1B689E
:10B790004FF484711846FFF7DCFC019B1B68002105
:10B7A0001846FFF76CFD00BF03B05DF804FB10B551
:10B7B00082B001900091009B9B69002B08D14FF44F
:10B7C00084710198FFF7C5FC0198FFF742FD13E073
:10B7D0004FF484710198FFF7BCFC009BDA68009B72
:10B7E0005B6AD4180198FFF734FD03462370009B71
:10B7F0005B6A5A1C009B5A6202B010BD00B589B04A
:10B80000039002910192039B1B791A462C2302FBA1
:10B8100003F36E4A1344069300238DF81F30069BF2
:10B820005B68002B06D0039B1B684FF40171184620
:10B83000FFF7D0FC069B9B69002B15D0069BDB69AC
:10B84000002B0ED0069B5B68002B06D0039B1B6869
:10B850004FF401711846FFF7A3FC11230593059BD4
:10B86000B0E001238DF81F309DF81F3083F00103F5
:10B87000DBB2002B0CD0069B019A9A61069B029AC0
:10B88000DA60069B00225A62069B0022DA6105E01C
:10B89000069B029A1A61069B019ADA61069B93F84D
:10B8A000293083F00103DBB2002B09D09DF81F3053
:10B8B00083F00103DBB2002B02D00398FFF75CFF9B
:10B8C000069B5B68002B73D1039B1B684FF4A2712E
:10B8D0001846FFF73EFC039B1B684FF49271184615
:10B8E000FFF74CFC03468DF81330039B1B684FF4A5
:10B8F00084711846FFF742FC03468DF81230039B13
:10B900001B684FF4A2711846FFF738FC03468DF808
:10B9100011309DF8123083F00103DBB2002B0DD003
:10B920009DF8113083F00103DBB2002B06D09DF8A7
:10B93000133083F00103DBB2002BCCD19DF8133020
:10B94000002B0FD19DF81130002B0BD1039B1B68EE
:10B9500006991846FFF72BFF069B9A69069B5B6AC0
:10B960009A42B8D8069B00229A619DF81330002BAA
:10B9700003D003230593059B24E09DF81130002B91
:10B9800003D00F230593059B1CE0069B93F82930F9
:10B99000002B06D0039B1B6800211846FFF76FFCA5
:10B9A0000DE0039B1B6804211846FFF768FC06E0C6
:10B9B000039B1B684FF401711846FFF7F1FB00234E
:10B9C0000593059B184609B05DF804FB541B002045
:10B9D00000B589B003900291019201238DF81030D7
:10B9E000029B0693019B0593039B5B68039A116876
:10B9F00004AA1046984700BF09B05DF804FB00B5E3
:10BA000087B00190009100238DF80830009B0493CB
:10BA1000019B9B680393019B00225A61019B5B6819
:10BA2000019A116802AA1046984700BF07B05DF856
:10BA300004FB00B58BB0019000914FF400710198A8
:10BA4000FFF7B8FB0346002B39D04FF492710198F1
:10BA5000FFF794FB0346002B31D04FF4927101980D
:10BA6000FFF777FB4FF401710198FFF7B3FB009BE1
:10BA700093F8293083F00103DBB2002B03D00421BB
:10BA80000198FFF7FCFB02238DF80C300198FFF7BB
:10BA9000ABFB03460693009B9B690593009BDB6809
:10BAA0000493009B00229A61009B0022DA61009BB4
:10BAB0005B68009A116803AA1046984752E0042177
:10BAC0000198FFF777FB0346002B4BD04FF48471AE
:10BAD0000198FFF753FB0346002B43D000990198D0
:10BAE000FFF765FE009B9A69009B5B6A9A4239D119
:10BAF000009BDB69002B19D0009BDB680993009B3E
:10BB00005B6A0893009BDA69009B9A61009B1A6943
:10BB1000009BDA60009B0022DA61009B00225A62DF
:10BB2000099A08990098FFF753FF1BE0009B93F8D0
:10BB3000293083F00103DBB2002B03D004210198EC
:10BB4000FFF79DFB4FF401710198FFF743FB009B4A
:10BB500000229A61009B596A009BDB681A46009894
:10BB6000FFF736FF4FF48E710198FFF707FB03468E
:10BB7000002B24D0009B5B690793009B1B6A079AEC
:10BB80009A420DD9009B93F82830DBB283F0010371
:10BB9000DBB2002B04D000990198FFF721FD0EE0E5
:10BBA0004FF48E710198FFF7D4FA009B5B69002B6C
:10BBB00005D0009B5B6919460098FFF720FF4FF402
:10BBC000A2710198FFF7DAFA0346002B1CD04FF45C
:10BBD000A2710198FFF7BDFA009B93F82930002B62
:10BBE00003D000210198FFF74AFB009B9B69002BC3
:10BBF0000AD0009B00229A61009B596A009BDB6877
:10BC00001A460098FFF7E4FE00BF0BB05DF804FB96
:10BC100008B503490348FFF70CFF00BF08BD00BF8C
:10BC2000541B00200020004082B003468DF80730EE
:10BC30009DF90730002B0CDB9DF8073003F01F0245
:10BC400005499DF907305B09012000FA02F241F82D
:10BC5000232000BF02B0704700E100E082B003463D
:10BC600000918DF807309DF90730002B0ADB009B0F
:10BC7000DAB20C499DF907305201D2B20B4483F875
:10BC800000230BE0009BDAB207499DF8073003F070
:10BC90000F03043B5201D2B20B441A7600BF02B02C
:10BCA000704700BF00E100E000ED00E082B00190CD
:10BCB000019B03F06043B3F1005F0CBF012300233D
:10BCC000DBB2184602B0704782B00190019B1B0B9B
:10BCD0005BB2184602B0704700B583B003460A460F
:10BCE0008DF8073013468DF806309DF806209DF933
:10BCF000073011461846FFF7B1FF00BF03B05DF8EB
:10BD000004FB00B583B003468DF807309DF907307A
:10BD10001846FFF789FF00BF03B05DF804FB84B04D
:10BD200001900B46ADF80230BDF80230019A134481
:10BD300000221A60BDF80230019A13441B68039375
:10BD4000039B00BF04B0704782B001900B46ADF872
:10BD50000230BDF80230019A13441B68002B14BF57
:10BD600001230023DBB2184602B0704782B0019075
:10BD70000091019BD3F80022009B1A43019BC3F85A
:10BD8000002200BF02B0704782B001900091019B79
:10BD9000D3F80022009BDB431A40019BC3F800222A
:10BDA00000BF02B0704782B001900091019B009AE1
:10BDB000C3F8042300BF02B0704782B00190009125
:10BDC000019B009AC3F8082300BF02B0704784B0FB
:10BDD0000190019BD3F880340393019B039AC3F82D
:10BDE0008024039B184604B0704782B00190019BE9
:10BDF0000822C3F8002500BF02B0704784B003904A
:10BE000002910192039B029AC3F80C25039B019AAD
:10BE1000C3F8142500BF04B0704784B003900291AA
:10BE20000192039B029AC3F80825039B019AC3F869
:10BE3000102500BF04B0704782B001900B468DF80A
:10BE400003309DF80330019A134401221A6000BFA9
:10BE500002B0704782B001900B468DF80330134654
:10BE60008DF802309DF803209DF802301343DBB2B9
:10BE70001A46019BC3F86C2500BF02B0704782B020
:10BE800001900091019B009AC3F8242500BF02B0E5
:10BE9000704784B0039002910192029A039BC3F809
:10BEA0004425039B019AC3F8482500BF04B070479E
:10BEB00082B00190019BD3F84C35184602B0704710
:10BEC00084B0039002910192029A039BC3F8342537
:10BED000039B019AC3F8382500BF04B0704782B0B5
:10BEE0000190019BD3F83C35184602B07047000022
:10BEF00082B00190019B1B681F2B02D84FF0A0431A
:10BF000006E0019B1B6803F01F02019B1A60024BB5
:10BF1000184602B0704700BF0003005000B585B05E
:10BF20000190084611461A4603468DF803300B4629
:10BF30008DF8023013468DF8013001AB1846FFF73B
:10BF4000D7FF03909DF803209DF802305B001A4351
:10BF50009DF801309B001A439DF818301B0242EAFD
:10BF600003019DF81C301B04019A1943039B02F541
:10BF7000E07243F8221000BF05B05DF804FB00B585
:10BF800085B0039000230193002300930023012236
:10BF900001210398FFF7C2FF00BF05B05DF804FB65
:10BFA00000B585B003900B468DF80B309DF80B3033
:10BFB0000022019200220092002200210398FFF744
:10BFC000ADFF00BF05B05DF804FB00B585B0019082
:10BFD00001AB1846FFF78CFF0390019B012202FA88
:10BFE00003F31946039800F004F800BF05B05DF8AC
:10BFF00004FB82B001900091019B009AC3F80825D0
:10C0000000BF02B0704700B583B001900091009B63
:10C010001B68B3F1FF3F09D0009B1B681846FFF770
:10C02000D4FF009B1B681846FFF7A9FF009B5B68C5
:10C03000B3F1FF3F05D0009B5B6800211846FFF776
:10C04000AFFF019B1A68009B9B6919461046FFF7DA
:10C0500016FF019B1868009B597D009B1B7D1A46AB
:10C06000FFF7F8FE019B1868009B1968009B5B684E
:10C070001A46FFF7C3FE009B1B7D012B22D1009BBC
:10C080009B68B3F1FF3F05D0009B9B6800211846D9
:10C09000FFF786FF009BDB68B3F1FF3F09D0009BF1
:10C0A000DB681846FFF791FF009BDB681846FFF737
:10C0B00066FF019B1868009BD968009B9B681A4625
:10C0C000FFF7ABFE00BF03B05DF804FB00B583B023
:10C0D00001900B468DF80330019B1B684FF488716B
:10C0E0001846FFF71CFE019B1B684FF49071184621
:10C0F000FFF715FE019B1B684FF492711846FFF77E
:10C100000EFE019B1B684FF4A2711846FFF707FE55
:10C11000019B1B684FF4AC711846FFF700FE019BB2
:10C120001B680F491846FFF73EFE019B1B68184627
:10C13000FFF7CAFD03461A469DF80330194610461C
:10C14000FFF7CAFD019B1B681846FFF7BDFD0346BC
:10C150001846FFF7D6FD00BF03B05DF804FB00BF33
:10C160001003420000B587B0039002910192039B37
:10C170001B791A461346DB0013449B00264A1344DE
:10C18000059300230493059B93F82030002B03D0E4
:10C1900008230493049B3AE0039B1A68039B1B79D2
:10C1A00019461E4B53F8213019461046FEF72CFF56
:10C1B0000346002B03D011230493049B27E002992C
:10C1C0000398FFF720FF059B019A5A60029B1A69AA
:10C1D000059B1A60059B5B68002B05D0029B1B7FAB
:10C1E00019460398FFF772FF039B1B681846FFF779
:10C1F000FCFD059B00229A61059B0022DA61059BEC
:10C2000000225A61059B012283F82020049B1846D6
:10C2100007B05DF804FB00BF801B0020781B030003
:10C2200000B589B0039002910192039B1B791A46D5
:10C230001346DB0013449B00434A134406930298C1
:10C24000FFF734FD034683F00103DBB2002B03D07C
:10C2500010230793079B73E0039800F077F80346D9
:10C26000002B03D011230793079B69E0069B019ADB
:10C270005A61069B029A9A6000230793039B1B68EE
:10C280004FF490711846FFF74AFD039B1B684FF46B
:10C29000AC711846FFF743FD039B1868069B99682D
:10C2A000069B5B691A46FFF7F4FD039B1B68082198
:10C2B0001846FFF7C1FD069B5B68002B3FD1039B2F
:10C2C0001B684FF490711846FFF73EFD03468DF84A
:10C2D0001730039B1B684FF4AC711846FFF734FD11
:10C2E00003468DF816309DF8173083F00103DBB25A
:10C2F000002B06D09DF8163083F00103DBB2002B33
:10C30000DDD19DF81630002B02D00F23079313E0E8
:10C31000039B1B680C211846FFF78EFD00BF039B93
:10C320001B684FF4AC711846FFF70EFD034683F00F
:10C330000103DBB2002BF2D1069B00225A61079B5E
:10C34000184609B05DF804FB801B002082B0019004
:10C35000019B1B791946084A0B46DB000B449B00E6
:10C36000134414331B68002B14BF01230023DBB2DA
:10C37000184602B0704700BF801B002000B589B08E
:10C38000039002910192039B1B791A461346DB002E
:10C3900013449B006F4A134405930298FFF786FCF1
:10C3A000034683F00103DBB2002B03D01023079375
:10C3B000079BCAE000238DF81B30059B5B68002BB0
:10C3C00006D0039B1B684FF404711846FFF7F5FC79
:10C3D000059B9B69002B15D0059BDB69002B0ED0BC
:10C3E000059B5B68002B06D0039B1B684FF4047110
:10C3F0001846FFF7D8FC11230793079BA5E00123FC
:10C400008DF81B309DF81B3083F00103DBB2002B4D
:10C4100009D0059B019A9A61059B029ADA60059BF7
:10C420000022DA6105E0059B029A1A61059B019AD8
:10C43000DA6100230793039B1B684FF48871184649
:10C44000FFF76DFC039B1B684FF4A2711846FFF7C2
:10C4500066FC039B1B68019A02991846FFF730FDA2
:10C460009DF81B3083F00103DBB2002B06D0039B49
:10C470001B6800211846FFF7DFFC05E0039B1B68E3
:10C4800020211846FFF772FC039B1B791946314A9D
:10C490000B46DB000B449B00134404331B68002B4A
:10C4A0004BD1039B1B684FF488711846FFF74CFC77
:10C4B00003468DF81330039B1B684FF4A271184696
:10C4C000FFF742FC03468DF81230039B1B684FF4C4
:10C4D00092711846FFF738FC03468DF811309DF82D
:10C4E000133083F00103DBB2002B0DD09DF8123026
:10C4F00083F00103DBB2002B06D09DF8113083F0EE
:10C500000103DBB2002BCCD1039B1B791946114AE6
:10C510000B46DB000B449B001344183300221A60C7
:10C520009DF81130002B01D0032307939DF81230A2
:10C53000002B09D00F23079306E0039B1B684FF4E1
:10C5400004711846FFF72FFC079B184609B05DF8E9
:10C5500004FB00BF801B002000B589B0039002914E
:10C56000019201238DF81030029B0693019B0593E5
:10C57000039B5B68039A116804AA1046984700BFA2
:10C5800009B05DF804FB00B587B00190009100236D
:10C590008DF80830009B0493019B9B680393019BDB
:10C5A00000225A61019B5B68019A116802AA104639
:10C5B000984700BF07B05DF804FB00B589B0019053
:10C5C00000914FF492710198FFF7BEFB0346002BD8
:10C5D00022D04FF492710198FFF7A1FB02238DF84E
:10C5E00008300198FFF7F3FB034605930198FFF726
:10C5F00076FC03460493009BDB680393009B0022B8
:10C600009A61009B0022DA61009B5B68009A1168C6
:10C6100002AA104698473BE04FF488710198FFF753
:10C6200093FB0346002B33D04FF488710198FFF73A
:10C6300076FB0198FFF753FC0790009B9B69079AD4
:10C640009A4225D1009BDB69002B17D0009BDB6849
:10C65000069320210198FFF797FB009BDA69009B66
:10C660009A61009B1A69009BDA60009B0022DA61E4
:10C67000069A07990098FFF76FFF09E0009B0022D8
:10C680009A61009BDB681A4607990098FFF764FFE0
:10C690004FF4A2710198FFF757FB0346002B18D007
:10C6A0004FF4A2710198FFF73AFB009B9B69002BA6
:10C6B0000FD0009B00229A61009B0022DA61019852
:10C6C000FFF70DFC0146009BDB681A460098FFF758
:10C6D00043FF4FF490710198FFF736FB0346002BA0
:10C6E00014D04FF490710198FFF719FB0C210198B9
:10C6F000FFF7A2FB009B5B69002B07D00198FFF7B7
:10C70000D7FB034619460098FFF73DFF4FF4AC7185
:10C710000198FFF719FB0346002B10D04FF4AC71C2
:10C720000198FFF7FCFA009B5B69002B07D001988A
:10C73000FFF7BEFB034619460098FFF724FF00BF32
:10C7400009B05DF804FB000008B503490348FFF792
:10C7500034FF00BF08BD00BF801B00200020004048
:10C7600000B587B003460A468DF8073013468DF8AA
:10C77000063000238DF81730002304939DF807300E
:10C780001846FDF73FFA0490049B032B61D89DF8EF
:10C790000630022B52D0022B5EDC002B31D0012B55
:10C7A0005AD13649049A13465B0013440B441B7854
:10C7B0008DF817303149049A13465B0013440B443B
:10C7C00001331B78002B0ED02D4B2E4A4FF48041A5
:10C7D0001846FBF739FC0390039B002B03D1294A31
:10C7E0009DF8073013702549049A13465B001344E3
:10C7F0000B4402331978244A049B13440A461A70E6
:10C800002AE01F4B1846FBF76CFC1F4A049B13449D
:10C8100019781A48049A13465B0013440344023300
:10C820001B78994217D11549049A13465B001344AB
:10C830000B4402331B788DF817300CE00F49049A33
:10C8400013465B0013440B4401331B788DF81730FB
:10C8500002E000BF00E000BF9DF81730002B09D0B8
:10C860000A4B1B68002B05D0084B1B689DF817204E
:10C870001046984700BF07B05DF804FBB41B0020CA
:10C8800058190020C01B0020C41B0020B01B002032
:10C8900000B583B00190019B1B7802211846FFF779
:10C8A0005FFF00BF03B05DF804FB000000B583B07C
:10C8B0000C4B1B78002B0FD00023019308E0019B49
:10C8C000022B02D00198FDF721F9019B013301935E
:10C8D000019B032BF3D901E0FDF72AF900BF03B058
:10C8E0005DF804FBAC1B00202DE9D04F92B003464D
:10C8F0008DF83F300023119300231093CC4B1B780D
:10C90000002B04D0CA4A00231370FFF7CFFF9DF815
:10C910003F30172B00F23F8201A252F823F000BFF4
:10C9200081C9020099C9020099C9020035CA0200F2
:10C93000D1CA02004DCB0200E1CB020001CC0200C3
:10C9400011CC02003DCC02005BCC020079CC02008D
:10C9500097CC0200A5CC0200A5CC0200A5CC020019
:10C96000A5CC0200A5CC020039CD020047CD0200C3
:10C970005BCD02006FCD020089CD020089CD02009F
:10C98000FFF794FFAB4B1846FBF7ABFB1190AA4A9D
:10C990009DF83F301370FFE10020FDF781F803465A
:10C9A000002B0DD00020FDF7B1F89DF83F30022B91
:10C9B00002D14FF4E16301E04FF47A6310930BE08E
:10C9C0000020FDF791F89DF83F30022B01D1C823DC
:10C9D00001E04FF4C8731093974A9DF83F301370ED
:10C9E000944C109B0022009301924FF000024FF0F4
:10C9F0000003DDE900673946CB03314643EA514382
:10CA00003146CA0312F57A71029143F10003039390
:10CA10004FF4FA624FF00003DDE9020103F0AEF8D3
:10CA200002460B461346002219462046FBF70CFB34
:10CA30001190B1E10020FDF733F80346002B0DD033
:10CA40000020FDF763F89DF83F30032B02D14FF42F
:10CA5000487301E04FF47A6310930BE00020FDF778
:10CA600043F89DF83F30032B01D1C82301E04FF478
:10CA7000C8731093704A9DF83F3013706D4C109B33
:10CA80000022049305924FF000024FF00003DDE90D
:10CA900004673946CB03314643EA51433146CA0362
:10CAA00012F57A71069143F1000307934FF4FA628D
:10CAB0004FF00003DDE9060103F060F802460B4683
:10CAC0001346002219462046FBF7BEFA119063E197
:10CAD0000020FCF7E5FF0346002B06D00020FDF701
